{
  "_format": "hh-sol-artifact-1",
  "contractName": "Attende",
  "sourceName": "contracts/Attende.sol",
  "abi": [
    {
      "inputs": [],
      "stateMutability": "nonpayable",
      "type": "constructor"
    },
    {
      "anonymous": false,
      "inputs": [
        {
          "indexed": false,
          "internalType": "address",
          "name": "employee",
          "type": "address"
        }
      ],
      "name": "EarlyExitRequested",
      "type": "event"
    },
    {
      "anonymous": false,
      "inputs": [
        {
          "indexed": false,
          "internalType": "address",
          "name": "employee",
          "type": "address"
        }
      ],
      "name": "LateEntryRequested",
      "type": "event"
    },
    {
      "inputs": [
        {
          "internalType": "address",
          "name": "employeeAddress",
          "type": "address"
        }
      ],
      "name": "ARRAYgetEmployeeActivity",
      "outputs": [
        {
          "components": [
            {
              "internalType": "uint256",
              "name": "time",
              "type": "uint256"
            },
            {
              "internalType": "string",
              "name": "operation",
              "type": "string"
            },
            {
              "internalType": "string",
              "name": "image",
              "type": "string"
            }
          ],
          "internalType": "struct Attende.activity[]",
          "name": "",
          "type": "tuple[]"
        }
      ],
      "stateMutability": "view",
      "type": "function"
    },
    {
      "inputs": [
        {
          "internalType": "address",
          "name": "employeeAddress",
          "type": "address"
        }
      ],
      "name": "ARRAYgetEmployeePenalty",
      "outputs": [
        {
          "components": [
            {
              "internalType": "uint256",
              "name": "time",
              "type": "uint256"
            },
            {
              "internalType": "string",
              "name": "operation",
              "type": "string"
            }
          ],
          "internalType": "struct Attende.penalty[]",
          "name": "",
          "type": "tuple[]"
        }
      ],
      "stateMutability": "view",
      "type": "function"
    },
    {
      "inputs": [],
      "name": "ARRAYgetGlobalActivity",
      "outputs": [
        {
          "components": [
            {
              "internalType": "string",
              "name": "name",
              "type": "string"
            },
            {
              "internalType": "uint256",
              "name": "time",
              "type": "uint256"
            },
            {
              "internalType": "string",
              "name": "operation",
              "type": "string"
            },
            {
              "internalType": "string",
              "name": "image",
              "type": "string"
            }
          ],
          "internalType": "struct Attende.globalActivity[]",
          "name": "",
          "type": "tuple[]"
        }
      ],
      "stateMutability": "view",
      "type": "function"
    },
    {
      "inputs": [
        {
          "internalType": "address",
          "name": "employeeAddress",
          "type": "address"
        },
        {
          "internalType": "string",
          "name": "name",
          "type": "string"
        }
      ],
      "name": "addEmployee",
      "outputs": [],
      "stateMutability": "nonpayable",
      "type": "function"
    },
    {
      "inputs": [],
      "name": "admin",
      "outputs": [
        {
          "internalType": "address",
          "name": "",
          "type": "address"
        }
      ],
      "stateMutability": "view",
      "type": "function"
    },
    {
      "inputs": [
        {
          "internalType": "address",
          "name": "employeeAddress",
          "type": "address"
        }
      ],
      "name": "approveEarlyExitRequest",
      "outputs": [],
      "stateMutability": "nonpayable",
      "type": "function"
    },
    {
      "inputs": [
        {
          "internalType": "address",
          "name": "employeeAddress",
          "type": "address"
        }
      ],
      "name": "approveLateEntryRequest",
      "outputs": [],
      "stateMutability": "nonpayable",
      "type": "function"
    },
    {
      "inputs": [
        {
          "internalType": "address",
          "name": "add",
          "type": "address"
        }
      ],
      "name": "checkUser",
      "outputs": [
        {
          "internalType": "bool",
          "name": "",
          "type": "bool"
        }
      ],
      "stateMutability": "view",
      "type": "function"
    },
    {
      "inputs": [
        {
          "internalType": "address",
          "name": "",
          "type": "address"
        }
      ],
      "name": "employees",
      "outputs": [
        {
          "internalType": "string",
          "name": "name",
          "type": "string"
        },
        {
          "internalType": "string",
          "name": "status",
          "type": "string"
        },
        {
          "internalType": "bool",
          "name": "exists",
          "type": "bool"
        },
        {
          "internalType": "uint256",
          "name": "penalty",
          "type": "uint256"
        },
        {
          "internalType": "bool",
          "name": "requestedLateEntry",
          "type": "bool"
        },
        {
          "internalType": "bool",
          "name": "lateEntryPenaltyPaid",
          "type": "bool"
        },
        {
          "internalType": "bool",
          "name": "requestedEarlyExit",
          "type": "bool"
        },
        {
          "internalType": "bool",
          "name": "earlyExitPenaltyPaid",
          "type": "bool"
        },
        {
          "internalType": "uint256",
          "name": "lastEntry",
          "type": "uint256"
        },
        {
          "internalType": "uint256",
          "name": "lastExit",
          "type": "uint256"
        }
      ],
      "stateMutability": "view",
      "type": "function"
    },
    {
      "inputs": [
        {
          "internalType": "string",
          "name": "url1",
          "type": "string"
        }
      ],
      "name": "enter",
      "outputs": [],
      "stateMutability": "payable",
      "type": "function"
    },
    {
      "inputs": [],
      "name": "getStartOfWork",
      "outputs": [
        {
          "internalType": "uint256",
          "name": "",
          "type": "uint256"
        }
      ],
      "stateMutability": "pure",
      "type": "function"
    },
    {
      "inputs": [],
      "name": "getbalance",
      "outputs": [
        {
          "internalType": "uint256",
          "name": "",
          "type": "uint256"
        }
      ],
      "stateMutability": "view",
      "type": "function"
    },
    {
      "inputs": [
        {
          "internalType": "address",
          "name": "add",
          "type": "address"
        }
      ],
      "name": "getuser",
      "outputs": [
        {
          "components": [
            {
              "internalType": "string",
              "name": "name",
              "type": "string"
            },
            {
              "internalType": "string",
              "name": "status",
              "type": "string"
            },
            {
              "internalType": "bool",
              "name": "exists",
              "type": "bool"
            },
            {
              "internalType": "uint256",
              "name": "penalty",
              "type": "uint256"
            },
            {
              "internalType": "bool",
              "name": "requestedLateEntry",
              "type": "bool"
            },
            {
              "internalType": "bool",
              "name": "lateEntryPenaltyPaid",
              "type": "bool"
            },
            {
              "internalType": "bool",
              "name": "requestedEarlyExit",
              "type": "bool"
            },
            {
              "internalType": "bool",
              "name": "earlyExitPenaltyPaid",
              "type": "bool"
            },
            {
              "components": [
                {
                  "internalType": "uint256",
                  "name": "time",
                  "type": "uint256"
                },
                {
                  "internalType": "string",
                  "name": "operation",
                  "type": "string"
                },
                {
                  "internalType": "string",
                  "name": "image",
                  "type": "string"
                }
              ],
              "internalType": "struct Attende.activity[]",
              "name": "activityHistory",
              "type": "tuple[]"
            },
            {
              "components": [
                {
                  "internalType": "uint256",
                  "name": "time",
                  "type": "uint256"
                },
                {
                  "internalType": "string",
                  "name": "operation",
                  "type": "string"
                }
              ],
              "internalType": "struct Attende.penalty[]",
              "name": "penaltyHistory",
              "type": "tuple[]"
            },
            {
              "internalType": "uint256",
              "name": "lastEntry",
              "type": "uint256"
            },
            {
              "internalType": "uint256",
              "name": "lastExit",
              "type": "uint256"
            }
          ],
          "internalType": "struct Attende.Employee",
          "name": "",
          "type": "tuple"
        }
      ],
      "stateMutability": "view",
      "type": "function"
    },
    {
      "inputs": [
        {
          "internalType": "uint256",
          "name": "",
          "type": "uint256"
        }
      ],
      "name": "globalActivityArray",
      "outputs": [
        {
          "internalType": "string",
          "name": "name",
          "type": "string"
        },
        {
          "internalType": "uint256",
          "name": "time",
          "type": "uint256"
        },
        {
          "internalType": "string",
          "name": "operation",
          "type": "string"
        },
        {
          "internalType": "string",
          "name": "image",
          "type": "string"
        }
      ],
      "stateMutability": "view",
      "type": "function"
    },
    {
      "inputs": [
        {
          "internalType": "string",
          "name": "url1",
          "type": "string"
        }
      ],
      "name": "leave",
      "outputs": [],
      "stateMutability": "payable",
      "type": "function"
    },
    {
      "inputs": [],
      "name": "owner",
      "outputs": [
        {
          "internalType": "address",
          "name": "",
          "type": "address"
        }
      ],
      "stateMutability": "view",
      "type": "function"
    },
    {
      "inputs": [
        {
          "internalType": "string",
          "name": "url1",
          "type": "string"
        }
      ],
      "name": "payEarlyExitPenalty",
      "outputs": [],
      "stateMutability": "payable",
      "type": "function"
    },
    {
      "inputs": [
        {
          "internalType": "string",
          "name": "url1",
          "type": "string"
        }
      ],
      "name": "payLateEntryPenalty",
      "outputs": [],
      "stateMutability": "payable",
      "type": "function"
    },
    {
      "inputs": [],
      "name": "payether",
      "outputs": [],
      "stateMutability": "payable",
      "type": "function"
    },
    {
      "inputs": [
        {
          "internalType": "address",
          "name": "employeeAddress",
          "type": "address"
        }
      ],
      "name": "removeEmployee",
      "outputs": [],
      "stateMutability": "nonpayable",
      "type": "function"
    },
    {
      "inputs": [],
      "name": "requestEarlyExit",
      "outputs": [],
      "stateMutability": "nonpayable",
      "type": "function"
    },
    {
      "inputs": [],
      "name": "requestLateEntry",
      "outputs": [],
      "stateMutability": "nonpayable",
      "type": "function"
    }
  ],
  "bytecode": "0x60806040523480156200001157600080fd5b5033600260006101000a81548173ffffffffffffffffffffffffffffffffffffffff021916908373ffffffffffffffffffffffffffffffffffffffff1602179055506040518060400160405280600381526020017f616c6900000000000000000000000000000000000000000000000000000000008152506001600073ab8483f64d9c6d1ecf9b849ae677dd3315835cb273ffffffffffffffffffffffffffffffffffffffff1673ffffffffffffffffffffffffffffffffffffffff1681526020019081526020016000206000019081620000ed919062001df2565b506040518060400160405280600481526020017f686f6d65000000000000000000000000000000000000000000000000000000008152506001600073ab8483f64d9c6d1ecf9b849ae677dd3315835cb273ffffffffffffffffffffffffffffffffffffffff1673ffffffffffffffffffffffffffffffffffffffff168152602001908152602001600020600101908162000188919062001df2565b50600180600073ab8483f64d9c6d1ecf9b849ae677dd3315835cb273ffffffffffffffffffffffffffffffffffffffff1673ffffffffffffffffffffffffffffffffffffffff16815260200190815260200160002060020160006101000a81548160ff02191690831515021790555060006001600073ab8483f64d9c6d1ecf9b849ae677dd3315835cb273ffffffffffffffffffffffffffffffffffffffff1673ffffffffffffffffffffffffffffffffffffffff1681526020019081526020016000206003018190555060006001600073ab8483f64d9c6d1ecf9b849ae677dd3315835cb273ffffffffffffffffffffffffffffffffffffffff1673ffffffffffffffffffffffffffffffffffffffff16815260200190815260200160002060040160006101000a81548160ff02191690831515021790555060006001600073ab8483f64d9c6d1ecf9b849ae677dd3315835cb273ffffffffffffffffffffffffffffffffffffffff1673ffffffffffffffffffffffffffffffffffffffff16815260200190815260200160002060040160016101000a81548160ff02191690831515021790555060006001600073ab8483f64d9c6d1ecf9b849ae677dd3315835cb273ffffffffffffffffffffffffffffffffffffffff1673ffffffffffffffffffffffffffffffffffffffff16815260200190815260200160002060040160026101000a81548160ff02191690831515021790555060006001600073ab8483f64d9c6d1ecf9b849ae677dd3315835cb273ffffffffffffffffffffffffffffffffffffffff1673ffffffffffffffffffffffffffffffffffffffff16815260200190815260200160002060040160036101000a81548160ff02191690831515021790555060006001600073ab8483f64d9c6d1ecf9b849ae677dd3315835cb273ffffffffffffffffffffffffffffffffffffffff1673ffffffffffffffffffffffffffffffffffffffff1681526020019081526020016000206007018190555060006001600073ab8483f64d9c6d1ecf9b849ae677dd3315835cb273ffffffffffffffffffffffffffffffffffffffff1673ffffffffffffffffffffffffffffffffffffffff168152602001908152602001600020600801819055506040518060400160405280600581526020017f73687265790000000000000000000000000000000000000000000000000000008152506001600073f39fd6e51aad88f6f4ce6ab8827279cfffb9226673ffffffffffffffffffffffffffffffffffffffff1673ffffffffffffffffffffffffffffffffffffffff168152602001908152602001600020600001908162000561919062001df2565b506040518060400160405280600481526020017f686f6d65000000000000000000000000000000000000000000000000000000008152506001600073f39fd6e51aad88f6f4ce6ab8827279cfffb9226673ffffffffffffffffffffffffffffffffffffffff1673ffffffffffffffffffffffffffffffffffffffff1681526020019081526020016000206001019081620005fc919062001df2565b50600180600073f39fd6e51aad88f6f4ce6ab8827279cfffb9226673ffffffffffffffffffffffffffffffffffffffff1673ffffffffffffffffffffffffffffffffffffffff16815260200190815260200160002060020160006101000a81548160ff02191690831515021790555060006001600073f39fd6e51aad88f6f4ce6ab8827279cfffb9226673ffffffffffffffffffffffffffffffffffffffff1673ffffffffffffffffffffffffffffffffffffffff1681526020019081526020016000206003018190555060006001600073f39fd6e51aad88f6f4ce6ab8827279cfffb9226673ffffffffffffffffffffffffffffffffffffffff1673ffffffffffffffffffffffffffffffffffffffff16815260200190815260200160002060040160006101000a81548160ff02191690831515021790555060006001600073f39fd6e51aad88f6f4ce6ab8827279cfffb9226673ffffffffffffffffffffffffffffffffffffffff1673ffffffffffffffffffffffffffffffffffffffff16815260200190815260200160002060040160016101000a81548160ff02191690831515021790555060006001600073f39fd6e51aad88f6f4ce6ab8827279cfffb9226673ffffffffffffffffffffffffffffffffffffffff1673ffffffffffffffffffffffffffffffffffffffff16815260200190815260200160002060040160026101000a81548160ff02191690831515021790555060006001600073f39fd6e51aad88f6f4ce6ab8827279cfffb9226673ffffffffffffffffffffffffffffffffffffffff1673ffffffffffffffffffffffffffffffffffffffff16815260200190815260200160002060040160036101000a81548160ff02191690831515021790555060006001600073f39fd6e51aad88f6f4ce6ab8827279cfffb9226673ffffffffffffffffffffffffffffffffffffffff1673ffffffffffffffffffffffffffffffffffffffff1681526020019081526020016000206007018190555060006001600073f39fd6e51aad88f6f4ce6ab8827279cfffb9226673ffffffffffffffffffffffffffffffffffffffff1673ffffffffffffffffffffffffffffffffffffffff168152602001908152602001600020600801819055506001600073f39fd6e51aad88f6f4ce6ab8827279cfffb9226673ffffffffffffffffffffffffffffffffffffffff1673ffffffffffffffffffffffffffffffffffffffff1681526020019081526020016000206005016040518060600160405280607b81526020016040518060400160405280600581526020017f656e74657200000000000000000000000000000000000000000000000000000081525081526020016040518060a001604052806065815260200162007bdb60659139815250908060018154018082558091505060019003906000526020600020906003020160009091909190915060008201518160000155602082015181600101908162000a45919062001df2565b50604082015181600201908162000a5d919062001df2565b5050506001600073f39fd6e51aad88f6f4ce6ab8827279cfffb9226673ffffffffffffffffffffffffffffffffffffffff1673ffffffffffffffffffffffffffffffffffffffff16815260200190815260200160002060050160405180606001604052806101c881526020016040518060400160405280600581526020017f6c6561766500000000000000000000000000000000000000000000000000000081525081526020016040518060a001604052806065815260200162007bdb60659139815250908060018154018082558091505060019003906000526020600020906003020160009091909190915060008201518160000155602082015181600101908162000b6b919062001df2565b50604082015181600201908162000b83919062001df2565b5050506001600073f39fd6e51aad88f6f4ce6ab8827279cfffb9226673ffffffffffffffffffffffffffffffffffffffff1673ffffffffffffffffffffffffffffffffffffffff168152602001908152602001600020600501604051806060016040528061031581526020016040518060400160405280601081526020017f656e7465727769746870656e616c74790000000000000000000000000000000081525081526020016040518060a001604052806065815260200162007bdb60659139815250908060018154018082558091505060019003906000526020600020906003020160009091909190915060008201518160000155602082015181600101908162000c91919062001df2565b50604082015181600201908162000ca9919062001df2565b5050506001600073f39fd6e51aad88f6f4ce6ab8827279cfffb9226673ffffffffffffffffffffffffffffffffffffffff1673ffffffffffffffffffffffffffffffffffffffff168152602001908152602001600020600501604051806060016040528062018af881526020016040518060400160405280601081526020017f6c656176657769746870656e616c74790000000000000000000000000000000081525081526020016040518060a001604052806065815260200162007bdb60659139815250908060018154018082558091505060019003906000526020600020906003020160009091909190915060008201518160000155602082015181600101908162000db8919062001df2565b50604082015181600201908162000dd0919062001df2565b5050506001600073f39fd6e51aad88f6f4ce6ab8827279cfffb9226673ffffffffffffffffffffffffffffffffffffffff1673ffffffffffffffffffffffffffffffffffffffff168152602001908152602001600020600601604051806040016040528062018af881526020016040518060400160405280601881526020017f4c617465456e74727950656e616c7479417070726f7665640000000000000000815250815250908060018154018082558091505060019003906000526020600020906002020160009091909190915060008201518160000155602082015181600101908162000ec0919062001df2565b5050506001600073f39fd6e51aad88f6f4ce6ab8827279cfffb9226673ffffffffffffffffffffffffffffffffffffffff1673ffffffffffffffffffffffffffffffffffffffff16815260200190815260200160002060060160405180604001604052806202015781526020016040518060400160405280601881526020017f4561726c794578697450656e616c7479417070726f7665640000000000000000815250815250908060018154018082558091505060019003906000526020600020906002020160009091909190915060008201518160000155602082015181600101908162000fb0919062001df2565b5050506001600073f39fd6e51aad88f6f4ce6ab8827279cfffb9226673ffffffffffffffffffffffffffffffffffffffff1673ffffffffffffffffffffffffffffffffffffffff16815260200190815260200160002060060160405180604001604052806202504181526020016040518060400160405280601481526020017f4c617465456e74727950656e616c7479506169640000000000000000000000008152508152509080600181540180825580915050600190039060005260206000209060020201600090919091909150600082015181600001556020820151816001019081620010a0919062001df2565b5050506001600073f39fd6e51aad88f6f4ce6ab8827279cfffb9226673ffffffffffffffffffffffffffffffffffffffff1673ffffffffffffffffffffffffffffffffffffffff16815260200190815260200160002060060160405180604001604052806202c6a081526020016040518060400160405280601381526020017f5061794561726c7950656e616c74795061696400000000000000000000000000815250815250908060018154018082558091505060019003906000526020600020906002020160009091909190915060008201518160000155602082015181600101908162001190919062001df2565b5050506001600073f39fd6e51aad88f6f4ce6ab8827279cfffb9226673ffffffffffffffffffffffffffffffffffffffff1673ffffffffffffffffffffffffffffffffffffffff168152602001908152602001600020600601604051806040016040528062033cff81526020016040518060400160405280601981526020017f4c617465456e74727950656e616c747952657175657374656400000000000000815250815250908060018154018082558091505060019003906000526020600020906002020160009091909190915060008201518160000155602082015181600101908162001280919062001df2565b5050506001600073f39fd6e51aad88f6f4ce6ab8827279cfffb9226673ffffffffffffffffffffffffffffffffffffffff1673ffffffffffffffffffffffffffffffffffffffff16815260200190815260200160002060060160405180604001604052806203b35e81526020016040518060400160405280601981526020017f4561726c794578697450656e616c747952657175657374656400000000000000815250815250908060018154018082558091505060019003906000526020600020906002020160009091909190915060008201518160000155602082015181600101908162001370919062001df2565b505050600060405180608001604052806040518060400160405280600681526020017f73687265793100000000000000000000000000000000000000000000000000008152508152602001600c81526020016040518060400160405280601081526020017f6c656176657769746870656e616c74790000000000000000000000000000000081525081526020016040518060a001604052806065815260200162007bdb60659139815250908060018154018082558091505060019003906000526020600020906004020160009091909190915060008201518160000190816200145a919062001df2565b506020820151816001015560408201518160020190816200147c919062001df2565b50606082015181600301908162001494919062001df2565b505050600060405180608001604052806040518060400160405280600681526020017f73687265793200000000000000000000000000000000000000000000000000008152508152602001602281526020016040518060400160405280601981526020017f4561726c794578697450656e616c74795265717565737465640000000000000081525081526020016040518060a001604052806065815260200162007bdb60659139815250908060018154018082558091505060019003906000526020600020906004020160009091909190915060008201518160000190816200157e919062001df2565b50602082015181600101556040820151816002019081620015a0919062001df2565b506060820151816003019081620015b8919062001df2565b505050600060405180608001604052806040518060400160405280600681526020017f73687265793300000000000000000000000000000000000000000000000000008152508152602001603881526020016040518060400160405280601881526020017f4561726c794578697450656e616c7479417070726f766564000000000000000081525081526020016040518060a001604052806065815260200162007bdb6065913981525090806001815401808255809150506001900390600052602060002090600402016000909190919091506000820151816000019081620016a2919062001df2565b50602082015181600101556040820151816002019081620016c4919062001df2565b506060820151816003019081620016dc919062001df2565b505050600060405180608001604052806040518060400160405280600681526020017f73687265793400000000000000000000000000000000000000000000000000008152508152602001604e81526020016040518060400160405280601881526020017f4c617465456e74727950656e616c7479417070726f766564000000000000000081525081526020016040518060a001604052806065815260200162007bdb6065913981525090806001815401808255809150506001900390600052602060002090600402016000909190919091506000820151816000019081620017c6919062001df2565b50602082015181600101556040820151816002019081620017e8919062001df2565b50606082015181600301908162001800919062001df2565b505050600060405180608001604052806040518060400160405280600681526020017f7368726579350000000000000000000000000000000000000000000000000000815250815260200161038e81526020016040518060400160405280600581526020017f6c6561766500000000000000000000000000000000000000000000000000000081525081526020016040518060a001604052806065815260200162007bdb6065913981525090806001815401808255809150506001900390600052602060002090600402016000909190919091506000820151816000019081620018eb919062001df2565b506020820151816001015560408201518160020190816200190d919062001df2565b50606082015181600301908162001925919062001df2565b505050600060405180608001604052806040518060400160405280600681526020017f7368726579360000000000000000000000000000000000000000000000000000815250815260200161045881526020016040518060400160405280600581526020017f656e74657200000000000000000000000000000000000000000000000000000081525081526020016040518060a001604052806065815260200162007bdb606591398152509080600181540180825580915050600190039060005260206000209060040201600090919091909150600082015181600001908162001a10919062001df2565b5060208201518160010155604082015181600201908162001a32919062001df2565b50606082015181600301908162001a4a919062001df2565b505050600060405180608001604052806040518060400160405280600681526020017f7368726579370000000000000000000000000000000000000000000000000000815250815260200161052281526020016040518060400160405280601081526020017f6c656176657769746870656e616c74790000000000000000000000000000000081525081526020016040518060a001604052806065815260200162007bdb606591398152509080600181540180825580915050600190039060005260206000209060040201600090919091909150600082015181600001908162001b35919062001df2565b5060208201518160010155604082015181600201908162001b57919062001df2565b50606082015181600301908162001b6f919062001df2565b50505062001ed9565b600081519050919050565b7f4e487b7100000000000000000000000000000000000000000000000000000000600052604160045260246000fd5b7f4e487b7100000000000000000000000000000000000000000000000000000000600052602260045260246000fd5b6000600282049050600182168062001bfa57607f821691505b60208210810362001c105762001c0f62001bb2565b5b50919050565b60008190508160005260206000209050919050565b60006020601f8301049050919050565b600082821b905092915050565b60006008830262001c7a7fffffffffffffffffffffffffffffffffffffffffffffffffffffffffffffffff8262001c3b565b62001c86868362001c3b565b95508019841693508086168417925050509392505050565b6000819050919050565b6000819050919050565b600062001cd362001ccd62001cc78462001c9e565b62001ca8565b62001c9e565b9050919050565b6000819050919050565b62001cef8362001cb2565b62001d0762001cfe8262001cda565b84845462001c48565b825550505050565b600090565b62001d1e62001d0f565b62001d2b81848462001ce4565b505050565b5b8181101562001d535762001d4760008262001d14565b60018101905062001d31565b5050565b601f82111562001da25762001d6c8162001c16565b62001d778462001c2b565b8101602085101562001d87578190505b62001d9f62001d968562001c2b565b83018262001d30565b50505b505050565b600082821c905092915050565b600062001dc76000198460080262001da7565b1980831691505092915050565b600062001de2838362001db4565b9150826002028217905092915050565b62001dfd8262001b78565b67ffffffffffffffff81111562001e195762001e1862001b83565b5b62001e25825462001be1565b62001e3282828562001d57565b600060209050601f83116001811462001e6a576000841562001e55578287015190505b62001e61858262001dd4565b86555062001ed1565b601f19841662001e7a8662001c16565b60005b8281101562001ea45784890151825560018201915060208501945060208101905062001e7d565b8683101562001ec4578489015162001ec0601f89168262001db4565b8355505b6001600288020188555050505b505050505050565b615cf28062001ee96000396000f3fe6080604052600436106101355760003560e01c806365223334116100ab578063b1f06f6a1161006f578063b1f06f6a1461039a578063cd571874146103c3578063d067894714610400578063d108177a14610446578063e6119e7b1461046f578063f851a440146104ac57610135565b806365223334146102e85780637f2de109146102ff5780638da5cb5b1461032a5780639d4ff8ad14610355578063a502e8081461037157610135565b80631f1db859116100fd5780631f1db859146102275780631f732f5814610231578063237a4d511461024d5780633ccc8388146102695780634263a46b146102805780634d9b3d5d146102bd57610135565b8063021f66071461013a5780630333e5ad146101655780630a66c60b1461018e5780630ebc7de4146101ce5780631e9d48cf146101ea575b600080fd5b34801561014657600080fd5b5061014f6104d7565b60405161015c919061454c565b60405180910390f35b34801561017157600080fd5b5061018c600480360381019061018791906145d9565b6104e3565b005b34801561019a57600080fd5b506101b560048036038101906101b09190614632565b6108a8565b6040516101c594939291906146ef565b60405180910390f35b6101e860048036038101906101e3919061487e565b610a80565b005b3480156101f657600080fd5b50610211600480360381019061020c91906145d9565b610e7d565b60405161021e91906148e2565b60405180910390f35b61022f610ed6565b005b61024b6004803603810190610246919061487e565b610ed8565b005b6102676004803603810190610262919061487e565b6112d5565b005b34801561027557600080fd5b5061027e61194c565b005b34801561028c57600080fd5b506102a760048036038101906102a291906145d9565b611cb8565b6040516102b49190614a6f565b60405180910390f35b3480156102c957600080fd5b506102d26121ac565b6040516102df919061454c565b60405180910390f35b3480156102f457600080fd5b506102fd6121b4565b005b34801561030b57600080fd5b50610314612520565b6040516103219190614bc4565b60405180910390f35b34801561033657600080fd5b5061033f61273f565b60405161034c9190614bf5565b60405180910390f35b61036f600480360381019061036a919061487e565b612765565b005b34801561037d57600080fd5b5061039860048036038101906103939190614c10565b612dcf565b005b3480156103a657600080fd5b506103c160048036038101906103bc91906145d9565b613266565b005b3480156103cf57600080fd5b506103ea60048036038101906103e591906145d9565b61362b565b6040516103f79190614f19565b60405180910390f35b34801561040c57600080fd5b50610427600480360381019061042291906145d9565b613ad6565b60405161043d9a99989796959493929190614f3b565b60405180910390f35b34801561045257600080fd5b5061046d600480360381019061046891906145d9565b613c7b565b005b34801561047b57600080fd5b50610496600480360381019061049191906145d9565b613e9b565b6040516104a3919061506b565b60405180910390f35b3480156104b857600080fd5b506104c161438f565b6040516104ce9190614bf5565b60405180910390f35b60006363f189a8905090565b6000429050600260009054906101000a900473ffffffffffffffffffffffffffffffffffffffff1673ffffffffffffffffffffffffffffffffffffffff163373ffffffffffffffffffffffffffffffffffffffff1614610578576040517f08c379a000000000000000000000000000000000000000000000000000000000815260040161056f906150ff565b60405180910390fd5b6000600160008473ffffffffffffffffffffffffffffffffffffffff1673ffffffffffffffffffffffffffffffffffffffff16815260200190815260200160002090508060020160009054906101000a900460ff1661060c576040517f08c379a00000000000000000000000000000000000000000000000000000000081526004016106039061516b565b60405180910390fd5b8060040160009054906101000a900460ff1661065d576040517f08c379a0000000000000000000000000000000000000000000000000000000008152600401610654906151fd565b60405180910390fd5b8060060160405180604001604052808481526020016040518060400160405280601881526020017f4c617465456e74727950656e616c7479417070726f766564000000000000000081525081525090806001815401808255809150506001900390600052602060002090600202016000909190919091506000820151816000015560208201518160010190816106f39190615429565b505050600060405180608001604052808360000180546107129061524c565b80601f016020809104026020016040519081016040528092919081815260200182805461073e9061524c565b801561078b5780601f106107605761010080835404028352916020019161078b565b820191906000526020600020905b81548152906001019060200180831161076e57829003601f168201915b505050505081526020018481526020016040518060400160405280601881526020017f4c617465456e74727950656e616c7479417070726f766564000000000000000081525081526020016040518060400160405280600b81526020017f6e6f7475706c6f616465640000000000000000000000000000000000000000008152508152509080600181540180825580915050600190039060005260206000209060040201600090919091909150600082015181600001908161084d9190615429565b5060208201518160010155604082015181600201908161086d9190615429565b5060608201518160030190816108839190615429565b50505060018160040160006101000a81548160ff021916908315150217905550505050565b600081815481106108b857600080fd5b90600052602060002090600402016000915090508060000180546108db9061524c565b80601f01602080910402602001604051908101604052809291908181526020018280546109079061524c565b80156109545780601f1061092957610100808354040283529160200191610954565b820191906000526020600020905b81548152906001019060200180831161093757829003601f168201915b50505050509080600101549080600201805461096f9061524c565b80601f016020809104026020016040519081016040528092919081815260200182805461099b9061524c565b80156109e85780601f106109bd576101008083540402835291602001916109e8565b820191906000526020600020905b8154815290600101906020018083116109cb57829003601f168201915b5050505050908060030180546109fd9061524c565b80601f0160208091040260200160405190810160405280929190818152602001828054610a299061524c565b8015610a765780601f10610a4b57610100808354040283529160200191610a76565b820191906000526020600020905b815481529060010190602001808311610a5957829003601f168201915b5050505050905084565b60004290506000600160003373ffffffffffffffffffffffffffffffffffffffff1673ffffffffffffffffffffffffffffffffffffffff16815260200190815260200160002090508060020160009054906101000a900460ff16610b19576040517f08c379a0000000000000000000000000000000000000000000000000000000008152600401610b109061516b565b60405180910390fd5b6000816003015414610b60576040517f08c379a0000000000000000000000000000000000000000000000000000000008152600401610b5790615547565b60405180910390fd5b8060040160039054906101000a900460ff1615610bb2576040517f08c379a0000000000000000000000000000000000000000000000000000000008152600401610ba9906155b3565b60405180910390fd5b60018160040160036101000a81548160ff0219169083151502179055508060050160405180606001604052808481526020016040518060400160405280601381526020017f7061794561726c794578697450656e616c7479000000000000000000000000008152508152602001858152509080600181540180825580915050600190039060005260206000209060030201600090919091909150600082015181600001556020820151816001019081610c6b9190615429565b506040820151816002019081610c819190615429565b5050508060060160405180604001604052808481526020016040518060400160405280601381526020017f5061794561726c7950656e616c747950616964000000000000000000000000008152508152509080600181540180825580915050600190039060005260206000209060020201600090919091909150600082015181600001556020820151816001019081610d1a9190615429565b50505060006040518060800160405280836000018054610d399061524c565b80601f0160208091040260200160405190810160405280929190818152602001828054610d659061524c565b8015610db25780601f10610d8757610100808354040283529160200191610db2565b820191906000526020600020905b815481529060010190602001808311610d9557829003601f168201915b505050505081526020018481526020016040518060400160405280601381526020017f7061794561726c794578697450656e616c74790000000000000000000000000081525081526020018581525090806001815401808255809150506001900390600052602060002090600402016000909190919091506000820151816000019081610e3f9190615429565b50602082015181600101556040820151816002019081610e5f9190615429565b506060820151816003019081610e759190615429565b505050505050565b6000600160008373ffffffffffffffffffffffffffffffffffffffff1673ffffffffffffffffffffffffffffffffffffffff16815260200190815260200160002060020160009054906101000a900460ff169050919050565b565b60004290506000600160003373ffffffffffffffffffffffffffffffffffffffff1673ffffffffffffffffffffffffffffffffffffffff16815260200190815260200160002090508060020160009054906101000a900460ff16610f71576040517f08c379a0000000000000000000000000000000000000000000000000000000008152600401610f689061516b565b60405180910390fd5b6000816003015414610fb8576040517f08c379a0000000000000000000000000000000000000000000000000000000008152600401610faf90615547565b60405180910390fd5b8060040160019054906101000a900460ff161561100a576040517f08c379a00000000000000000000000000000000000000000000000000000000081526004016110019061561f565b60405180910390fd5b60018160040160016101000a81548160ff0219169083151502179055508060060160405180604001604052808481526020016040518060400160405280601481526020017f4c617465456e74727950656e616c74795061696400000000000000000000000081525081525090806001815401808255809150506001900390600052602060002090600202016000909190919091506000820151816000015560208201518160010190816110bd9190615429565b5050508060050160405180606001604052808481526020016040518060400160405280601381526020017f7061794c617465456e74727950656e616c747900000000000000000000000000815250815260200185815250908060018154018082558091505060019003906000526020600020906003020160009091909190915060008201518160000155602082015181600101908161115c9190615429565b5060408201518160020190816111729190615429565b505050600060405180608001604052808360000180546111919061524c565b80601f01602080910402602001604051908101604052809291908181526020018280546111bd9061524c565b801561120a5780601f106111df5761010080835404028352916020019161120a565b820191906000526020600020905b8154815290600101906020018083116111ed57829003601f168201915b505050505081526020018481526020016040518060400160405280601381526020017f7061794c617465456e74727950656e616c747900000000000000000000000000815250815260200185815250908060018154018082558091505060019003906000526020600020906004020160009091909190915060008201518160000190816112979190615429565b506020820151816001015560408201518160020190816112b79190615429565b5060608201518160030190816112cd9190615429565b505050505050565b6000600160003373ffffffffffffffffffffffffffffffffffffffff1673ffffffffffffffffffffffffffffffffffffffff16815260200190815260200160002090508060020160009054906101000a900460ff16611369576040517f08c379a00000000000000000000000000000000000000000000000000000000081526004016113609061516b565b60405180910390fd5b6000429050618ca06113796104d7565b611383919061566e565b81106115ee576040518060400160405280600481526020017f686f6d65000000000000000000000000000000000000000000000000000000008152508260010190816113cf9190615429565b508160050160405180606001604052808381526020016040518060400160405280600581526020017f6c65617665000000000000000000000000000000000000000000000000000000815250815260200185815250908060018154018082558091505060019003906000526020600020906003020160009091909190915060008201518160000155602082015181600101908161146c9190615429565b5060408201518160020190816114829190615429565b505050600060405180608001604052808460000180546114a19061524c565b80601f01602080910402602001604051908101604052809291908181526020018280546114cd9061524c565b801561151a5780601f106114ef5761010080835404028352916020019161151a565b820191906000526020600020905b8154815290600101906020018083116114fd57829003601f168201915b505050505081526020018381526020016040518060400160405280600581526020017f6c65617665000000000000000000000000000000000000000000000000000000815250815260200185815250908060018154018082558091505060019003906000526020600020906004020160009091909190915060008201518160000190816115a79190615429565b506020820151816001015560408201518160020190816115c79190615429565b5060608201518160030190816115dd9190615429565b505050808260080181905550611947565b8160040160029054906101000a900460ff1661163f576040517f08c379a000000000000000000000000000000000000000000000000000000000815260040161163690615714565b60405180910390fd5b6002826003016000828254611654919061566e565b925050819055508160040160019054906101000a900460ff166116ac576040517f08c379a00000000000000000000000000000000000000000000000000000000081526004016116a3906157a6565b60405180910390fd5b6040518060400160405280600481526020017f686f6d65000000000000000000000000000000000000000000000000000000008152508260010190816116f29190615429565b508160050160405180606001604052808381526020016040518060400160405280601081526020017f6c656176657769746870656e616c747900000000000000000000000000000000815250815260200185815250908060018154018082558091505060019003906000526020600020906003020160009091909190915060008201518160000155602082015181600101908161178f9190615429565b5060408201518160020190816117a59190615429565b505050600060405180608001604052808460000180546117c49061524c565b80601f01602080910402602001604051908101604052809291908181526020018280546117f09061524c565b801561183d5780601f106118125761010080835404028352916020019161183d565b820191906000526020600020905b81548152906001019060200180831161182057829003601f168201915b505050505081526020018381526020016040518060400160405280601081526020017f6c656176657769746870656e616c747900000000000000000000000000000000815250815260200185815250908060018154018082558091505060019003906000526020600020906004020160009091909190915060008201518160000190816118ca9190615429565b506020820151816001015560408201518160020190816118ea9190615429565b5060608201518160030190816119009190615429565b50505080826008018190555060008260040160026101000a81548160ff02191690831515021790555060008260040160016101000a81548160ff0219169083151502179055505b505050565b60004290506000600160003373ffffffffffffffffffffffffffffffffffffffff1673ffffffffffffffffffffffffffffffffffffffff16815260200190815260200160002090508060020160009054906101000a900460ff166119e5576040517f08c379a00000000000000000000000000000000000000000000000000000000081526004016119dc9061516b565b60405180910390fd5b8060040160009054906101000a900460ff1615611a37576040517f08c379a0000000000000000000000000000000000000000000000000000000008152600401611a2e90615812565b60405180910390fd5b60018160040160006101000a81548160ff0219169083151502179055508060060160405180604001604052808481526020016040518060400160405280601981526020017f4c617465456e74727950656e616c7479526571756573746564000000000000008152508152509080600181540180825580915050600190039060005260206000209060020201600090919091909150600082015181600001556020820151816001019081611aea9190615429565b50505060006040518060800160405280836000018054611b099061524c565b80601f0160208091040260200160405190810160405280929190818152602001828054611b359061524c565b8015611b825780601f10611b5757610100808354040283529160200191611b82565b820191906000526020600020905b815481529060010190602001808311611b6557829003601f168201915b505050505081526020018481526020016040518060400160405280601981526020017f4c617465456e74727950656e616c74795265717565737465640000000000000081525081526020016040518060400160405280600b81526020017f6e6f7475706c6f6164656400000000000000000000000000000000000000000081525081525090806001815401808255809150506001900390600052602060002090600402016000909190919091506000820151816000019081611c449190615429565b50602082015181600101556040820151816002019081611c649190615429565b506060820151816003019081611c7a9190615429565b5050507fccefd97927f00dabb59bfdd4dfcf1bade7cacfad32fceda12b5335c4a365d42a33604051611cac9190614bf5565b60405180910390a15050565b60606000600160008473ffffffffffffffffffffffffffffffffffffffff1673ffffffffffffffffffffffffffffffffffffffff16815260200190815260200160002060405180610180016040529081600082018054611d179061524c565b80601f0160208091040260200160405190810160405280929190818152602001828054611d439061524c565b8015611d905780601f10611d6557610100808354040283529160200191611d90565b820191906000526020600020905b815481529060010190602001808311611d7357829003601f168201915b50505050508152602001600182018054611da99061524c565b80601f0160208091040260200160405190810160405280929190818152602001828054611dd59061524c565b8015611e225780601f10611df757610100808354040283529160200191611e22565b820191906000526020600020905b815481529060010190602001808311611e0557829003601f168201915b505050505081526020016002820160009054906101000a900460ff16151515158152602001600382015481526020016004820160009054906101000a900460ff161515151581526020016004820160019054906101000a900460ff161515151581526020016004820160029054906101000a900460ff161515151581526020016004820160039054906101000a900460ff1615151515815260200160058201805480602002602001604051908101604052809291908181526020016000905b82821015612041578382906000526020600020906003020160405180606001604052908160008201548152602001600182018054611f1e9061524c565b80601f0160208091040260200160405190810160405280929190818152602001828054611f4a9061524c565b8015611f975780601f10611f6c57610100808354040283529160200191611f97565b820191906000526020600020905b815481529060010190602001808311611f7a57829003601f168201915b50505050508152602001600282018054611fb09061524c565b80601f0160208091040260200160405190810160405280929190818152602001828054611fdc9061524c565b80156120295780601f10611ffe57610100808354040283529160200191612029565b820191906000526020600020905b81548152906001019060200180831161200c57829003601f168201915b50505050508152505081526020019060010190611ee1565b50505050815260200160068201805480602002602001604051908101604052809291908181526020016000905b8282101561213c5783829060005260206000209060020201604051806040016040529081600082015481526020016001820180546120ab9061524c565b80601f01602080910402602001604051908101604052809291908181526020018280546120d79061524c565b80156121245780601f106120f957610100808354040283529160200191612124565b820191906000526020600020905b81548152906001019060200180831161210757829003601f168201915b5050505050815250508152602001906001019061206e565b505050508152602001600782015481526020016008820154815250509050806040015161219e576040517f08c379a00000000000000000000000000000000000000000000000000000000081526004016121959061516b565b60405180910390fd5b806101000151915050919050565b600047905090565b60004290506000600160003373ffffffffffffffffffffffffffffffffffffffff1673ffffffffffffffffffffffffffffffffffffffff16815260200190815260200160002090508060020160009054906101000a900460ff1661224d576040517f08c379a00000000000000000000000000000000000000000000000000000000081526004016122449061516b565b60405180910390fd5b8060040160029054906101000a900460ff161561229f576040517f08c379a00000000000000000000000000000000000000000000000000000000081526004016122969061587e565b60405180910390fd5b60018160040160026101000a81548160ff0219169083151502179055508060060160405180604001604052808481526020016040518060400160405280601981526020017f4561726c794578697450656e616c74795265717565737465640000000000000081525081525090806001815401808255809150506001900390600052602060002090600202016000909190919091506000820151816000015560208201518160010190816123529190615429565b505050600060405180608001604052808360000180546123719061524c565b80601f016020809104026020016040519081016040528092919081815260200182805461239d9061524c565b80156123ea5780601f106123bf576101008083540402835291602001916123ea565b820191906000526020600020905b8154815290600101906020018083116123cd57829003601f168201915b505050505081526020018481526020016040518060400160405280601981526020017f4561726c794578697450656e616c74795265717565737465640000000000000081525081526020016040518060400160405280600b81526020017f6e6f7475706c6f61646564000000000000000000000000000000000000000000815250815250908060018154018082558091505060019003906000526020600020906004020160009091909190915060008201518160000190816124ac9190615429565b506020820151816001015560408201518160020190816124cc9190615429565b5060608201518160030190816124e29190615429565b5050507fb614df0c6bac0acb45bef8df28f3351bb2491e0262325f454e2640edf3bb6dd9336040516125149190614bf5565b60405180910390a15050565b60606000805480602002602001604051908101604052809291908181526020016000905b8282101561273657838290600052602060002090600402016040518060800160405290816000820180546125779061524c565b80601f01602080910402602001604051908101604052809291908181526020018280546125a39061524c565b80156125f05780601f106125c5576101008083540402835291602001916125f0565b820191906000526020600020905b8154815290600101906020018083116125d357829003601f168201915b50505050508152602001600182015481526020016002820180546126139061524c565b80601f016020809104026020016040519081016040528092919081815260200182805461263f9061524c565b801561268c5780601f106126615761010080835404028352916020019161268c565b820191906000526020600020905b81548152906001019060200180831161266f57829003601f168201915b505050505081526020016003820180546126a59061524c565b80601f01602080910402602001604051908101604052809291908181526020018280546126d19061524c565b801561271e5780601f106126f35761010080835404028352916020019161271e565b820191906000526020600020905b81548152906001019060200180831161270157829003601f168201915b50505050508152505081526020019060010190612544565b50505050905090565b600360009054906101000a900473ffffffffffffffffffffffffffffffffffffffff1681565b6000600160003373ffffffffffffffffffffffffffffffffffffffff1673ffffffffffffffffffffffffffffffffffffffff16815260200190815260200160002090508060020160009054906101000a900460ff166127f9576040517f08c379a00000000000000000000000000000000000000000000000000000000081526004016127f09061516b565b60405180910390fd5b60004290506128066104d7565b8111612a71576040518060400160405280600681526020017f6f666669636500000000000000000000000000000000000000000000000000008152508260010190816128529190615429565b508160050160405180606001604052808381526020016040518060400160405280600581526020017f656e74657200000000000000000000000000000000000000000000000000000081525081526020018581525090806001815401808255809150506001900390600052602060002090600302016000909190919091506000820151816000015560208201518160010190816128ef9190615429565b5060408201518160020190816129059190615429565b505050600060405180608001604052808460000180546129249061524c565b80601f01602080910402602001604051908101604052809291908181526020018280546129509061524c565b801561299d5780601f106129725761010080835404028352916020019161299d565b820191906000526020600020905b81548152906001019060200180831161298057829003601f168201915b505050505081526020018381526020016040518060400160405280600581526020017f656e74657200000000000000000000000000000000000000000000000000000081525081526020018581525090806001815401808255809150506001900390600052602060002090600402016000909190919091506000820151816000019081612a2a9190615429565b50602082015181600101556040820151816002019081612a4a9190615429565b506060820151816003019081612a609190615429565b505050808260070181905550612dca565b8160040160009054906101000a900460ff16612ac2576040517f08c379a0000000000000000000000000000000000000000000000000000000008152600401612ab990615910565b60405180910390fd5b6002826003016000828254612ad7919061566e565b925050819055508160040160019054906101000a900460ff16612b2f576040517f08c379a0000000000000000000000000000000000000000000000000000000008152600401612b26906159a2565b60405180910390fd5b6040518060400160405280600681526020017f6f66666963650000000000000000000000000000000000000000000000000000815250826001019081612b759190615429565b508160050160405180606001604052808381526020016040518060400160405280601081526020017f656e7465727769746870656e616c7479000000000000000000000000000000008152508152602001858152509080600181540180825580915050600190039060005260206000209060030201600090919091909150600082015181600001556020820151816001019081612c129190615429565b506040820151816002019081612c289190615429565b50505060006040518060800160405280846000018054612c479061524c565b80601f0160208091040260200160405190810160405280929190818152602001828054612c739061524c565b8015612cc05780601f10612c9557610100808354040283529160200191612cc0565b820191906000526020600020905b815481529060010190602001808311612ca357829003601f168201915b505050505081526020018381526020016040518060400160405280601081526020017f656e7465727769746870656e616c74790000000000000000000000000000000081525081526020018581525090806001815401808255809150506001900390600052602060002090600402016000909190919091506000820151816000019081612d4d9190615429565b50602082015181600101556040820151816002019081612d6d9190615429565b506060820151816003019081612d839190615429565b50505080826007018190555060008260040160006101000a81548160ff02191690831515021790555060008260040160016101000a81548160ff0219169083151502179055505b505050565b600260009054906101000a900473ffffffffffffffffffffffffffffffffffffffff1673ffffffffffffffffffffffffffffffffffffffff163373ffffffffffffffffffffffffffffffffffffffff1614612e5f576040517f08c379a0000000000000000000000000000000000000000000000000000000008152600401612e5690615a0e565b60405180910390fd5b600160008373ffffffffffffffffffffffffffffffffffffffff1673ffffffffffffffffffffffffffffffffffffffff16815260200190815260200160002060020160009054906101000a900460ff1615612eef576040517f08c379a0000000000000000000000000000000000000000000000000000000008152600401612ee690615a7a565b60405180910390fd5b80600160008473ffffffffffffffffffffffffffffffffffffffff1673ffffffffffffffffffffffffffffffffffffffff1681526020019081526020016000206000019081612f3e9190615429565b506040518060400160405280600481526020017f686f6d6500000000000000000000000000000000000000000000000000000000815250600160008473ffffffffffffffffffffffffffffffffffffffff1673ffffffffffffffffffffffffffffffffffffffff1681526020019081526020016000206001019081612fc39190615429565b5060018060008473ffffffffffffffffffffffffffffffffffffffff1673ffffffffffffffffffffffffffffffffffffffff16815260200190815260200160002060020160006101000a81548160ff0219169083151502179055506000600160008473ffffffffffffffffffffffffffffffffffffffff1673ffffffffffffffffffffffffffffffffffffffff168152602001908152602001600020600301819055506000600160008473ffffffffffffffffffffffffffffffffffffffff1673ffffffffffffffffffffffffffffffffffffffff16815260200190815260200160002060040160006101000a81548160ff0219169083151502179055506000600160008473ffffffffffffffffffffffffffffffffffffffff1673ffffffffffffffffffffffffffffffffffffffff16815260200190815260200160002060040160016101000a81548160ff0219169083151502179055506000600160008473ffffffffffffffffffffffffffffffffffffffff1673ffffffffffffffffffffffffffffffffffffffff16815260200190815260200160002060040160026101000a81548160ff0219169083151502179055506000600160008473ffffffffffffffffffffffffffffffffffffffff1673ffffffffffffffffffffffffffffffffffffffff16815260200190815260200160002060040160036101000a81548160ff0219169083151502179055506000600160008473ffffffffffffffffffffffffffffffffffffffff1673ffffffffffffffffffffffffffffffffffffffff168152602001908152602001600020600701819055506000600160008473ffffffffffffffffffffffffffffffffffffffff1673ffffffffffffffffffffffffffffffffffffffff168152602001908152602001600020600801819055505050565b6000429050600260009054906101000a900473ffffffffffffffffffffffffffffffffffffffff1673ffffffffffffffffffffffffffffffffffffffff163373ffffffffffffffffffffffffffffffffffffffff16146132fb576040517f08c379a00000000000000000000000000000000000000000000000000000000081526004016132f290615b0c565b60405180910390fd5b6000600160008473ffffffffffffffffffffffffffffffffffffffff1673ffffffffffffffffffffffffffffffffffffffff16815260200190815260200160002090508060020160009054906101000a900460ff1661338f576040517f08c379a00000000000000000000000000000000000000000000000000000000081526004016133869061516b565b60405180910390fd5b8060040160029054906101000a900460ff166133e0576040517f08c379a00000000000000000000000000000000000000000000000000000000081526004016133d790615b9e565b60405180910390fd5b8060060160405180604001604052808481526020016040518060400160405280601881526020017f4561726c794578697450656e616c7479417070726f766564000000000000000081525081525090806001815401808255809150506001900390600052602060002090600202016000909190919091506000820151816000015560208201518160010190816134769190615429565b505050600060405180608001604052808360000180546134959061524c565b80601f01602080910402602001604051908101604052809291908181526020018280546134c19061524c565b801561350e5780601f106134e35761010080835404028352916020019161350e565b820191906000526020600020905b8154815290600101906020018083116134f157829003601f168201915b505050505081526020018481526020016040518060400160405280601881526020017f4561726c794578697450656e616c7479417070726f766564000000000000000081525081526020016040518060400160405280600b81526020017f6e6f7475706c6f61646564000000000000000000000000000000000000000000815250815250908060018154018082558091505060019003906000526020600020906004020160009091909190915060008201518160000190816135d09190615429565b506020820151816001015560408201518160020190816135f09190615429565b5060608201518160030190816136069190615429565b50505060018160040160016101000a81548160ff021916908315150217905550505050565b6136336143b5565b600160008373ffffffffffffffffffffffffffffffffffffffff1673ffffffffffffffffffffffffffffffffffffffff1681526020019081526020016000206040518061018001604052908160008201805461368e9061524c565b80601f01602080910402602001604051908101604052809291908181526020018280546136ba9061524c565b80156137075780601f106136dc57610100808354040283529160200191613707565b820191906000526020600020905b8154815290600101906020018083116136ea57829003601f168201915b505050505081526020016001820180546137209061524c565b80601f016020809104026020016040519081016040528092919081815260200182805461374c9061524c565b80156137995780601f1061376e57610100808354040283529160200191613799565b820191906000526020600020905b81548152906001019060200180831161377c57829003601f168201915b505050505081526020016002820160009054906101000a900460ff16151515158152602001600382015481526020016004820160009054906101000a900460ff161515151581526020016004820160019054906101000a900460ff161515151581526020016004820160029054906101000a900460ff161515151581526020016004820160039054906101000a900460ff1615151515815260200160058201805480602002602001604051908101604052809291908181526020016000905b828210156139b85783829060005260206000209060030201604051806060016040529081600082015481526020016001820180546138959061524c565b80601f01602080910402602001604051908101604052809291908181526020018280546138c19061524c565b801561390e5780601f106138e35761010080835404028352916020019161390e565b820191906000526020600020905b8154815290600101906020018083116138f157829003601f168201915b505050505081526020016002820180546139279061524c565b80601f01602080910402602001604051908101604052809291908181526020018280546139539061524c565b80156139a05780601f10613975576101008083540402835291602001916139a0565b820191906000526020600020905b81548152906001019060200180831161398357829003601f168201915b50505050508152505081526020019060010190613858565b50505050815260200160068201805480602002602001604051908101604052809291908181526020016000905b82821015613ab3578382906000526020600020906002020160405180604001604052908160008201548152602001600182018054613a229061524c565b80601f0160208091040260200160405190810160405280929190818152602001828054613a4e9061524c565b8015613a9b5780601f10613a7057610100808354040283529160200191613a9b565b820191906000526020600020905b815481529060010190602001808311613a7e57829003601f168201915b505050505081525050815260200190600101906139e5565b505050508152602001600782015481526020016008820154815250509050919050565b6001602052806000526040600020600091509050806000018054613af99061524c565b80601f0160208091040260200160405190810160405280929190818152602001828054613b259061524c565b8015613b725780601f10613b4757610100808354040283529160200191613b72565b820191906000526020600020905b815481529060010190602001808311613b5557829003601f168201915b505050505090806001018054613b879061524c565b80601f0160208091040260200160405190810160405280929190818152602001828054613bb39061524c565b8015613c005780601f10613bd557610100808354040283529160200191613c00565b820191906000526020600020905b815481529060010190602001808311613be357829003601f168201915b5050505050908060020160009054906101000a900460ff16908060030154908060040160009054906101000a900460ff16908060040160019054906101000a900460ff16908060040160029054906101000a900460ff16908060040160039054906101000a900460ff1690806007015490806008015490508a565b600260009054906101000a900473ffffffffffffffffffffffffffffffffffffffff1673ffffffffffffffffffffffffffffffffffffffff163373ffffffffffffffffffffffffffffffffffffffff1614613d0b576040517f08c379a0000000000000000000000000000000000000000000000000000000008152600401613d0290615c30565b60405180910390fd5b600160008273ffffffffffffffffffffffffffffffffffffffff1673ffffffffffffffffffffffffffffffffffffffff16815260200190815260200160002060020160009054906101000a900460ff16613d9a576040517f08c379a0000000000000000000000000000000000000000000000000000000008152600401613d9190615c9c565b60405180910390fd5b600160008273ffffffffffffffffffffffffffffffffffffffff1673ffffffffffffffffffffffffffffffffffffffff16815260200190815260200160002060008082016000613dea9190614420565b600182016000613dfa9190614420565b6002820160006101000a81549060ff021916905560038201600090556004820160006101000a81549060ff02191690556004820160016101000a81549060ff02191690556004820160026101000a81549060ff02191690556004820160036101000a81549060ff0219169055600582016000613e769190614460565b600682016000613e869190614484565b60078201600090556008820160009055505050565b60606000600160008473ffffffffffffffffffffffffffffffffffffffff1673ffffffffffffffffffffffffffffffffffffffff16815260200190815260200160002060405180610180016040529081600082018054613efa9061524c565b80601f0160208091040260200160405190810160405280929190818152602001828054613f269061524c565b8015613f735780601f10613f4857610100808354040283529160200191613f73565b820191906000526020600020905b815481529060010190602001808311613f5657829003601f168201915b50505050508152602001600182018054613f8c9061524c565b80601f0160208091040260200160405190810160405280929190818152602001828054613fb89061524c565b80156140055780601f10613fda57610100808354040283529160200191614005565b820191906000526020600020905b815481529060010190602001808311613fe857829003601f168201915b505050505081526020016002820160009054906101000a900460ff16151515158152602001600382015481526020016004820160009054906101000a900460ff161515151581526020016004820160019054906101000a900460ff161515151581526020016004820160029054906101000a900460ff161515151581526020016004820160039054906101000a900460ff1615151515815260200160058201805480602002602001604051908101604052809291908181526020016000905b828210156142245783829060005260206000209060030201604051806060016040529081600082015481526020016001820180546141019061524c565b80601f016020809104026020016040519081016040528092919081815260200182805461412d9061524c565b801561417a5780601f1061414f5761010080835404028352916020019161417a565b820191906000526020600020905b81548152906001019060200180831161415d57829003601f168201915b505050505081526020016002820180546141939061524c565b80601f01602080910402602001604051908101604052809291908181526020018280546141bf9061524c565b801561420c5780601f106141e15761010080835404028352916020019161420c565b820191906000526020600020905b8154815290600101906020018083116141ef57829003601f168201915b505050505081525050815260200190600101906140c4565b50505050815260200160068201805480602002602001604051908101604052809291908181526020016000905b8282101561431f57838290600052602060002090600202016040518060400160405290816000820154815260200160018201805461428e9061524c565b80601f01602080910402602001604051908101604052809291908181526020018280546142ba9061524c565b80156143075780601f106142dc57610100808354040283529160200191614307565b820191906000526020600020905b8154815290600101906020018083116142ea57829003601f168201915b50505050508152505081526020019060010190614251565b5050505081526020016007820154815260200160088201548152505090508060400151614381576040517f08c379a00000000000000000000000000000000000000000000000000000000081526004016143789061516b565b60405180910390fd5b806101200151915050919050565b600260009054906101000a900473ffffffffffffffffffffffffffffffffffffffff1681565b604051806101800160405280606081526020016060815260200160001515815260200160008152602001600015158152602001600015158152602001600015158152602001600015158152602001606081526020016060815260200160008152602001600081525090565b50805461442c9061524c565b6000825580601f1061443e575061445d565b601f01602090049060005260206000209081019061445c91906144a8565b5b50565b508054600082556003029060005260206000209081019061448191906144c5565b50565b50805460008255600202906000526020600020908101906144a59190614504565b50565b5b808211156144c15760008160009055506001016144a9565b5090565b5b80821115614500576000808201600090556001820160006144e79190614420565b6002820160006144f79190614420565b506003016144c6565b5090565b5b8082111561452f576000808201600090556001820160006145269190614420565b50600201614505565b5090565b6000819050919050565b61454681614533565b82525050565b6000602082019050614561600083018461453d565b92915050565b6000604051905090565b600080fd5b600080fd5b600073ffffffffffffffffffffffffffffffffffffffff82169050919050565b60006145a68261457b565b9050919050565b6145b68161459b565b81146145c157600080fd5b50565b6000813590506145d3816145ad565b92915050565b6000602082840312156145ef576145ee614571565b5b60006145fd848285016145c4565b91505092915050565b61460f81614533565b811461461a57600080fd5b50565b60008135905061462c81614606565b92915050565b60006020828403121561464857614647614571565b5b60006146568482850161461d565b91505092915050565b600081519050919050565b600082825260208201905092915050565b60005b8381101561469957808201518184015260208101905061467e565b60008484015250505050565b6000601f19601f8301169050919050565b60006146c18261465f565b6146cb818561466a565b93506146db81856020860161467b565b6146e4816146a5565b840191505092915050565b6000608082019050818103600083015261470981876146b6565b9050614718602083018661453d565b818103604083015261472a81856146b6565b9050818103606083015261473e81846146b6565b905095945050505050565b600080fd5b600080fd5b7f4e487b7100000000000000000000000000000000000000000000000000000000600052604160045260246000fd5b61478b826146a5565b810181811067ffffffffffffffff821117156147aa576147a9614753565b5b80604052505050565b60006147bd614567565b90506147c98282614782565b919050565b600067ffffffffffffffff8211156147e9576147e8614753565b5b6147f2826146a5565b9050602081019050919050565b82818337600083830152505050565b600061482161481c846147ce565b6147b3565b90508281526020810184848401111561483d5761483c61474e565b5b6148488482856147ff565b509392505050565b600082601f83011261486557614864614749565b5b813561487584826020860161480e565b91505092915050565b60006020828403121561489457614893614571565b5b600082013567ffffffffffffffff8111156148b2576148b1614576565b5b6148be84828501614850565b91505092915050565b60008115159050919050565b6148dc816148c7565b82525050565b60006020820190506148f760008301846148d3565b92915050565b600081519050919050565b600082825260208201905092915050565b6000819050602082019050919050565b61493281614533565b82525050565b600082825260208201905092915050565b60006149548261465f565b61495e8185614938565b935061496e81856020860161467b565b614977816146a5565b840191505092915050565b600060608301600083015161499a6000860182614929565b50602083015184820360208601526149b28282614949565b915050604083015184820360408601526149cc8282614949565b9150508091505092915050565b60006149e58383614982565b905092915050565b6000602082019050919050565b6000614a05826148fd565b614a0f8185614908565b935083602082028501614a2185614919565b8060005b85811015614a5d5784840389528151614a3e85826149d9565b9450614a49836149ed565b925060208a01995050600181019050614a25565b50829750879550505050505092915050565b60006020820190508181036000830152614a8981846149fa565b905092915050565b600081519050919050565b600082825260208201905092915050565b6000819050602082019050919050565b60006080830160008301518482036000860152614ada8282614949565b9150506020830151614aef6020860182614929565b5060408301518482036040860152614b078282614949565b91505060608301518482036060860152614b218282614949565b9150508091505092915050565b6000614b3a8383614abd565b905092915050565b6000602082019050919050565b6000614b5a82614a91565b614b648185614a9c565b935083602082028501614b7685614aad565b8060005b85811015614bb25784840389528151614b938582614b2e565b9450614b9e83614b42565b925060208a01995050600181019050614b7a565b50829750879550505050505092915050565b60006020820190508181036000830152614bde8184614b4f565b905092915050565b614bef8161459b565b82525050565b6000602082019050614c0a6000830184614be6565b92915050565b60008060408385031215614c2757614c26614571565b5b6000614c35858286016145c4565b925050602083013567ffffffffffffffff811115614c5657614c55614576565b5b614c6285828601614850565b9150509250929050565b614c75816148c7565b82525050565b600082825260208201905092915050565b6000614c97826148fd565b614ca18185614c7b565b935083602082028501614cb385614919565b8060005b85811015614cef5784840389528151614cd085826149d9565b9450614cdb836149ed565b925060208a01995050600181019050614cb7565b50829750879550505050505092915050565b600081519050919050565b600082825260208201905092915050565b6000819050602082019050919050565b6000604083016000830151614d456000860182614929565b5060208301518482036020860152614d5d8282614949565b9150508091505092915050565b6000614d768383614d2d565b905092915050565b6000602082019050919050565b6000614d9682614d01565b614da08185614d0c565b935083602082028501614db285614d1d565b8060005b85811015614dee5784840389528151614dcf8582614d6a565b9450614dda83614d7e565b925060208a01995050600181019050614db6565b50829750879550505050505092915050565b6000610180830160008301518482036000860152614e1e8282614949565b91505060208301518482036020860152614e388282614949565b9150506040830151614e4d6040860182614c6c565b506060830151614e606060860182614929565b506080830151614e736080860182614c6c565b5060a0830151614e8660a0860182614c6c565b5060c0830151614e9960c0860182614c6c565b5060e0830151614eac60e0860182614c6c565b50610100830151848203610100860152614ec68282614c8c565b915050610120830151848203610120860152614ee28282614d8b565b915050610140830151614ef9610140860182614929565b50610160830151614f0e610160860182614929565b508091505092915050565b60006020820190508181036000830152614f338184614e00565b905092915050565b6000610140820190508181036000830152614f56818d6146b6565b90508181036020830152614f6a818c6146b6565b9050614f79604083018b6148d3565b614f86606083018a61453d565b614f9360808301896148d3565b614fa060a08301886148d3565b614fad60c08301876148d3565b614fba60e08301866148d3565b614fc861010083018561453d565b614fd661012083018461453d565b9b9a5050505050505050505050565b600082825260208201905092915050565b600061500182614d01565b61500b8185614fe5565b93508360208202850161501d85614d1d565b8060005b85811015615059578484038952815161503a8582614d6a565b945061504583614d7e565b925060208a01995050600181019050615021565b50829750879550505050505092915050565b600060208201905081810360008301526150858184614ff6565b905092915050565b7f4f6e6c792061646d696e2063616e20617070726f7665206c61746520656e747260008201527f792072657175657374732e000000000000000000000000000000000000000000602082015250565b60006150e9602b8361466a565b91506150f48261508d565b604082019050919050565b60006020820190508181036000830152615118816150dc565b9050919050565b7f456d706c6f796565206e6f7420666f756e642e00000000000000000000000000600082015250565b600061515560138361466a565b91506151608261511f565b602082019050919050565b6000602082019050818103600083015261518481615148565b9050919050565b7f456d706c6f79656520646964206e6f742072657175657374206c61746520656e60008201527f7472792e00000000000000000000000000000000000000000000000000000000602082015250565b60006151e760248361466a565b91506151f28261518b565b604082019050919050565b60006020820190508181036000830152615216816151da565b9050919050565b7f4e487b7100000000000000000000000000000000000000000000000000000000600052602260045260246000fd5b6000600282049050600182168061526457607f821691505b6020821081036152775761527661521d565b5b50919050565b60008190508160005260206000209050919050565b60006020601f8301049050919050565b600082821b905092915050565b6000600883026152df7fffffffffffffffffffffffffffffffffffffffffffffffffffffffffffffffff826152a2565b6152e986836152a2565b95508019841693508086168417925050509392505050565b6000819050919050565b600061532661532161531c84614533565b615301565b614533565b9050919050565b6000819050919050565b6153408361530b565b61535461534c8261532d565b8484546152af565b825550505050565b600090565b61536961535c565b615374818484615337565b505050565b5b818110156153985761538d600082615361565b60018101905061537a565b5050565b601f8211156153dd576153ae8161527d565b6153b784615292565b810160208510156153c6578190505b6153da6153d285615292565b830182615379565b50505b505050565b600082821c905092915050565b6000615400600019846008026153e2565b1980831691505092915050565b600061541983836153ef565b9150826002028217905092915050565b6154328261465f565b67ffffffffffffffff81111561544b5761544a614753565b5b615455825461524c565b61546082828561539c565b600060209050601f8311600181146154935760008415615481578287015190505b61548b858261540d565b8655506154f3565b601f1984166154a18661527d565b60005b828110156154c9578489015182556001820191506020850194506020810190506154a4565b868310156154e657848901516154e2601f8916826153ef565b8355505b6001600288020188555050505b505050505050565b7f4e6f2070656e616c747920746f207061792e0000000000000000000000000000600082015250565b600061553160128361466a565b915061553c826154fb565b602082019050919050565b6000602082019050818103600083015261556081615524565b9050919050565b7f4561726c7920657869742070656e616c747920616c726561647920706169642e600082015250565b600061559d60208361466a565b91506155a882615567565b602082019050919050565b600060208201905081810360008301526155cc81615590565b9050919050565b7f4c61746520656e7472792070656e616c747920616c726561647920706169642e600082015250565b600061560960208361466a565b9150615614826155d3565b602082019050919050565b60006020820190508181036000830152615638816155fc565b9050919050565b7f4e487b7100000000000000000000000000000000000000000000000000000000600052601160045260246000fd5b600061567982614533565b915061568483614533565b925082820190508082111561569c5761569b61563f565b5b92915050565b7f4561726c79206578697420686173206e6f74206265656e20726571756573746560008201527f642e000000000000000000000000000000000000000000000000000000000000602082015250565b60006156fe60228361466a565b9150615709826156a2565b604082019050919050565b6000602082019050818103600083015261572d816156f1565b9050919050565b7f4561726c7920657869742070656e616c747920686173206e6f74206265656e2060008201527f706169642e000000000000000000000000000000000000000000000000000000602082015250565b600061579060258361466a565b915061579b82615734565b604082019050919050565b600060208201905081810360008301526157bf81615783565b9050919050565b7f4c61746520656e74727920616c7265616479207265717565737465642e000000600082015250565b60006157fc601d8361466a565b9150615807826157c6565b602082019050919050565b6000602082019050818103600083015261582b816157ef565b9050919050565b7f4561726c79206578697420616c7265616479207265717565737465642e000000600082015250565b6000615868601d8361466a565b915061587382615832565b602082019050919050565b600060208201905081810360008301526158978161585b565b9050919050565b7f4c61746520656e74727920686173206e6f74206265656e20726571756573746560008201527f642e000000000000000000000000000000000000000000000000000000000000602082015250565b60006158fa60228361466a565b91506159058261589e565b604082019050919050565b60006020820190508181036000830152615929816158ed565b9050919050565b7f4c61746520656e7472792070656e616c747920686173206e6f74206265656e2060008201527f706169642e000000000000000000000000000000000000000000000000000000602082015250565b600061598c60258361466a565b915061599782615930565b604082019050919050565b600060208201905081810360008301526159bb8161597f565b9050919050565b7f4f6e6c792061646d696e2063616e2061646420616e20656d706c6f7965652e00600082015250565b60006159f8601f8361466a565b9150615a03826159c2565b602082019050919050565b60006020820190508181036000830152615a27816159eb565b9050919050565b7f456d706c6f79656520616c7265616479206578697374732e0000000000000000600082015250565b6000615a6460188361466a565b9150615a6f82615a2e565b602082019050919050565b60006020820190508181036000830152615a9381615a57565b9050919050565b7f4f6e6c792061646d696e2063616e20617070726f7665206561726c792065786960008201527f742072657175657374732e000000000000000000000000000000000000000000602082015250565b6000615af6602b8361466a565b9150615b0182615a9a565b604082019050919050565b60006020820190508181036000830152615b2581615ae9565b9050919050565b7f456d706c6f79656520646964206e6f742072657175657374206561726c79206560008201527f7869742e00000000000000000000000000000000000000000000000000000000602082015250565b6000615b8860248361466a565b9150615b9382615b2c565b604082019050919050565b60006020820190508181036000830152615bb781615b7b565b9050919050565b7f4f6e6c792061646d696e2063616e2072656d6f766520616e20656d706c6f796560008201527f652e000000000000000000000000000000000000000000000000000000000000602082015250565b6000615c1a60228361466a565b9150615c2582615bbe565b604082019050919050565b60006020820190508181036000830152615c4981615c0d565b9050919050565b7f456d706c6f79656520646f6573206e6f742065786973742e0000000000000000600082015250565b6000615c8660188361466a565b9150615c9182615c50565b602082019050919050565b60006020820190508181036000830152615cb581615c79565b905091905056fea2646970667358221220f7422761f923f6152d65d7df10e4019961f832a3e38788a279239655e34668cc64736f6c6343000811003368747470733a2f2f757365722d696d616765732e67697468756275736572636f6e74656e742e636f6d2f37363231363736352f3138333032363237342d65613030666561392d343736372d343035652d383664332d6366303633313664343438332e706e67",
  "linkReferences": {},
  "deployedLinkReferences": {}
}